:100000000C9459000C947E040C9457040C948100B9
:100010000C9481000C9481000C9481000C943503A5
:100020000C9481000C9481000C9481000C9481004C
:100030000C9481000C9481000C9481000C9481003C
:100040000C940D040C9481000C94DB030C94B50308
:100050000C9481000C9481000C9481000C9481001C
:100060000C94A5040C9481000000000025002800D9
:100070002B00040404040404040402020202020229
:10008000030303030303010204081020408001025C
:1000900004081020010204081020000000080002DB
:1000A000010000030407000000000000000002003F
:1000B000C00511241FBECFEFD8E0DEBFCDBF11E0D9
:1000C000A0E0B1E0E4E3FCE002C005900D92A831AD
:1000D000B107D9F722E0A8E1B1E001C01D92AE332B
:1000E000B207E1F710E0C9E5D0E004C02197FE01B6
:1000F0000E941206C835D107C9F70E94ED050C947D
:1001000018060C940000AF92BF92CF92DF92EF924C
:10011000FF920F931F93CF93DF936C017B018B01B1
:10012000040F151FEB015E01AE18BF08C017D10701
:1001300059F06991D601ED91FC910190F081E02D8B
:10014000C6010995892B79F7C501DF91CF911F91E0
:100150000F91FF90EF90DF90CF90BF90AF900895F8
:10016000FC01538D448D252F30E0842F90E0821BBD
:10017000930B541710F0CF96089501970895FC0142
:10018000918D828D981761F0A28DAE0FBF2FB11D9A
:100190005D968C91928D9F5F9F73928F90E00895F2
:1001A0008FEF9FEF0895FC01918D828D981731F0AC
:1001B000828DE80FF11D858D90E008958FEF9FEF00
:1001C0000895FC01918D228D892F90E0805C9F4FD6
:1001D000821B91098F7399270895FC01A48DA80FA4
:1001E000B92FB11DA35ABF4F2C91848D90E0019679
:1001F0008F739927848FA689B7892C93A089B18999
:100200008C91837080648C93938D848D981306C039
:100210000288F389E02D80818F7D80830895EF929D
:10022000FF920F931F93CF93DF93EC0181E0888FB0
:100230009B8D8C8D98131AC0E889F989808185FF80
:1002400015C09FB7F894EE89FF896083E889F98922
:1002500080818370806480839FBF81E090E0DF9124
:10026000CF911F910F91FF90EF900895F62E0B8D77
:1002700010E00F5F1F4F0F731127E02E8C8D8E1132
:100280000CC00FB607FCFACFE889F989808185FF99
:10029000F5CFCE010E94ED00F1CFEB8DEC0FFD2FDD
:1002A000F11DE35AFF4FF0829FB7F8940B8FEA8954
:1002B000FB8980818062CFCFCF93DF93EC01888D63
:1002C0008823B9F0AA89BB89E889F9898C9185FDD1
:1002D00003C0808186FD0DC00FB607FCF7CF8C915F
:1002E00085FFF2CF808185FFEDCFCE010E94ED002A
:1002F000E9CFDF91CF91089590E0FC01E656FF4FE2
:100300002491FC01EA57FF4F3491FC01EE58FF4F56
:10031000E491EE23C9F0222339F0233001F1A8F44F
:10032000213019F1223029F1F0E0EE0FFF1FE859DA
:10033000FF4FA591B4918FB7F894EC91611126C04D
:1003400030953E233C938FBF08952730A9F0283085
:10035000C9F0243049F7809180008F7D03C08091DF
:1003600080008F7780938000DFCF84B58F7784BD46
:10037000DBCF84B58F7DFBCF8091B0008F778093EA
:10038000B000D2CF8091B0008F7DF9CF3E2BDACF75
:10039000089520914901260F3327331F213231055B
:1003A000ECF420916D01FC0190E080E0243069F0D4
:1003B00082E00895A09149012191AC01475D5E4F13
:1003C000A40FB52FB11D2C930196861798F3809139
:1003D0004901680F6093490180E0089581E0089524
:1003E00008958FEF9FEF08958FEF9FEF089580910D
:1003F000220190E09195819591090895CF93DF9323
:10040000CB01EA01642F0E94C901CE01DF91CF9197
:100410000895CF93DF931F92CDB7DEB7698361E074
:10042000CE0101960E94C90181E090E00F90DF911A
:10043000CF91089590E080E008958F929F92AF92BF
:10044000BF92EF92FF920F931F93CF93DF93CDB79D
:10045000DEB7A1970FB6F894DEBF0FBECDBF7C010B
:10046000FA01CB0119A2223008F42AE08E010F5DB7
:100470001F4F822E912CB12CA12CBF01A5019401FC
:100480000E94F005F901CA016A3074F5605DD80177
:100490006E938D01232B242B252B79F790E080E0A0
:1004A000109789F0FD0101900020E9F73197AF0125
:1004B0004A1B5B0BD701ED91FC910280F381E02D8B
:1004C000B801C7010995A1960FB6F894DEBF0FBE1B
:1004D000CDBFDF91CF911F910F91FF90EF90BF9013
:1004E000AF909F908F900895695CD1CF8F929F922B
:1004F000AF92BF92CF92DF92EF92FF920F931F9332
:10050000CF93DF937C01EB016C0182E0C80ED11C1C
:100510004701E5E08E0E911C10E000E0F6014191EC
:100520006F0150E070E060E02AE0CE010E941D0201
:100530005C01E881F9810190F081E02D6EE2CE014D
:1005400009958A0D9B1D080F191FC814D90431F78E
:10055000F701458150E070E060E02AE0CE010E94A2
:100560001D02800F911FDF91CF911F910F91FF907E
:10057000EF90DF90CF90BF90AF909F908F900895B5
:100580001F93CF93DF9385ED8093BC00809125016D
:1005900090912601A0912701B09128010796A11DF5
:1005A000B11D23E0B695A795979587952A95D1F724
:1005B0002091BC0024FD03C010926D0152C04091F7
:1005C0002501509126016091270170912801452B4A
:1005D000462B472B69F30097A105B10541F02AE2AC
:1005E0002A95F1F700C00197A109B109E1CF8091E7
:1005F0002401C1E0C0932301882399F1D091B80070
:100600001091BA008091BC008A7B8093BC0060E0AE
:1006100082E10E947C0160E083E10E947C011092F3
:100620006D01C0936F0110926E0161E082E10E9442
:100630007C0161E083E10E947C018091B9008E7FA2
:100640008093B9008091B9008D7F8093B90088E4D0
:100650008093B80085E48093BC001093BA00D093D7
:10066000B800DF91CF911F9108951F920F920FB69E
:100670000F9211242F933F934F935F936F937F9328
:100680008F939F93AF93BF93EF93FF9380919D01BF
:1006900090919E01A0919F01B091A001892B8A2B7E
:1006A0008B2BC1F190919C01809100008927809350
:1006B000000080919D0190919E01A0919F01B091B9
:1006C000A001181619061A061B069CF480919D01BC
:1006D00090919E01A0919F01B091A0010197A10965
:1006E000B10980939D0190939E01A0939F01B093C7
:1006F000A001FF91EF91BF91AF919F918F917F9159
:100700006F915F914F913F912F910F900FBE0F907E
:100710001F90189580910401EEEAF0E0E4919FEFBC
:1007200090930401E13051F030F0E23069F060E084
:100730000E947C01DECF10926E00F9CF90916F0085
:100740009D7F90936F00F3CF909170009D7F909369
:10075000700091E09093B0009091B100987F946008
:100760009093B1001092B300E2CF1F920F920FB698
:100770000F9211242F933F934F935F936F937F9327
:100780008F939F93AF93BF93EF93FF9381EA91E091
:100790000E94ED00FF91EF91BF91AF919F918F91DA
:1007A0007F916F915F914F913F912F910F900FBE6D
:1007B0000F901F9018951F920F920FB60F92112451
:1007C0002F938F939F93EF93FF93E091B101F0915B
:1007D000B2018081E091B701F091B80182FD1BC0A8
:1007E00090818091BA018F5F8F732091BB01821736
:1007F00041F0E091BA01F0E0EF55FE4F958F809304
:10080000BA01FF91EF919F918F912F910F900FBEA1
:100810000F901F9018958081F4CF1F920F920FB602
:100820000F9211242F933F938F939F93AF93BF9376
:100830008091980190919901A0919A01B0919B01AA
:100840003091970123E0230F2D3758F50196A11D14
:10085000B11D209397018093980190939901A093E3
:100860009A01B0939B018091930190919401A09182
:100870009501B09196010196A11DB11D8093930140
:1008800090939401A0939501B0939601BF91AF917D
:100890009F918F913F912F910F900FBE0F901F90BE
:1008A000189526E8230F0296A11DB11DD2CF1F92E5
:1008B0000F920FB60F9211242F933F934F935F9394
:1008C0006F937F938F939F93AF93BF93EF93FF9318
:1008D000E0910201F09103010995FF91EF91BF9121
:1008E000AF919F918F917F916F915F914F913F91C8
:1008F0002F910F900FBE0F901F9018951F920F927F
:100900000FB60F9211242F933F934F935F936F93E2
:100910007F938F939F93AF93BF93EF93FF93E09158
:100920000001F09101010995FF91EF91BF91AF9105
:100930009F918F917F916F915F914F913F912F91F7
:100940000F900FBE0F901F9018951F920F920FB629
:100950000F9211242F933F934F935F936F937F9345
:100960008F939F93AF93BF93EF93FF938091B900C1
:10097000887F803609F44AC0F0F5883209F4A5C0B2
:1009800018F5803109F499C0B8F4882309F4F5C04A
:10099000883009F492C0FF91EF91BF91AF919F9180
:1009A0008F917F916F915F914F913F912F910F9018
:1009B0000FBE0F901F901895883109F486C08032C1
:1009C00051F780936C0114C0803409F49BC040F44B
:1009D0008033B9F38833F9F680936C0185ECAEC0AF
:1009E000803509F483C0883509F494C0883499F6B9
:1009F0000E94C002D0CF883909F48AC038F5883700
:100A000029F050F4883611F0803729F683E080937E
:100A10006D0110926B0155C0883809F479C0803996
:100A200019F0803809F0B7CF80916B01803208F05F
:100A30006FC0E0916B0181E08E0F80936B0180911C
:100A4000BB00F0E0E55BFE4F80833BC0803B39F0AC
:100A5000D0F4803A09F477C0883A09F09CCF84E05A
:100A600080936D0110924A0110924901F0E0E0E09C
:100A700009958091490181110FC081E0809349015E
:100A80001092290109C0803C09F4A8CF883C09F4E0
:100A9000A5CF883B09F07FCFE0914A0181E08E0F1E
:100AA00080934A01F0E0E75DFE4F80818093BB00B8
:100AB00090914A018091490129C0809192018093CF
:100AC000BB0085EC8093BC0066CF90919101809132
:100AD0009001981758F5E091910181E08E0F809375
:100AE0009101F0E0E059FE4F8081E9CFE091910162
:100AF00081E08E0F809391018091BB00F0E0E0597E
:100B0000FE4F808390919101809190019817C8F2D7
:100B100085E8D8CFE091910181E08E0F809391011B
:100B20008091BB00F0E0E059FE4F808380916F011F
:100B300081115ECF81E080936E0184EA8093BC00D6
:100B400010926D0128CF85EC8093BC0010926D014E
:100B500080916B01803230F4E0916B01F0E0E55B55
:100B6000FE4F108260916B0170E08BE491E0F0E049
:100B7000E0E0099510926B010ECF10926C0138CF16
:100B8000E1EAF1E01382128288EE93E0A0E0B0E0A7
:100B900084839583A683B78389E091E091838083E2
:100BA00085EC90E09587848784EC90E09787868732
:100BB00080EC90E0918B808B81EC90E0938B828B2A
:100BC00082EC90E0958B848B86EC90E0978B868B03
:100BD000118E128E138E148E089590E080E0089589
:100BE000A1E21A2EAA1BBB1BFD010DC0AA1FBB1F31
:100BF000EE1FFF1FA217B307E407F50720F0A21BA3
:100C0000B30BE40BF50B661F771F881F991F1A940F
:100C100069F760957095809590959B01AC01BD0139
:100C2000CF010895EE0FFF1F0590F491E02D099478
:040C3000F894FFCF66
:100C3400C801C801FF000000000F018300B0005C80
:080C440001E100BF00D3000034
:00000001FF
